:020000040800F2
:100000000080002089290008E1240008E32400087A
:10001000E5240008E7240008E924000800000000A7
:10002000000000000000000000000000EB240008B9
:10003000ED24000800000000EF240008F12400086F
:10004000D9290008D9290008D9290008D929000888
:10005000D9290008D9290008D9290008D929000878
:10006000D9290008D9290008D9290008D929000868
:10007000D9290008D9290008D9290008D929000858
:10008000D929000800000000D9290008D929000852
:10009000D9290008D9290008D9290008D929000838
:1000A000D9290008D9290008D9290008D929000828
:1000B000F924000809250008D9290008D9290008D1
:1000C000D9290008D9290008D9290008D929000808
:1000D000D9290008D9290008D9290008D9290008F8
:1000E000D9290008D9290008D9290008D9290008E8
:1000F000D9290008D9290008D929000800000000E2
:1001000000000000D929000800000000D9290008DB
:10011000D929000800000000D9290008D9290008C1
:10012000D9290008D9290008D9290008D9290008A7
:10013000D92900080000000000000000D9290008AB
:10014000D9290008D929000800000000000000009B
:10015000000000000000000000000000000000009F
:10016000000000000000000000000000D929000885
:10017000D929000800000000000000000000000075
:1001800000000000D9290008000000000000000065
:10019000000000000000000000000000000000005F
:1001A0000000000000000000D9290008D92900083B
:1001B000D9290008D9290008D92900080000000021
:1001C00000000000D9290008000000000000000025
:0801D000D9290008D929000813
:1002000010B5054C237833B9044B13B10448AFF350
:1002100000800123237010BDC009002000000000F1
:100220006CC0000808B5034B1BB103490348AFF38A
:10023000008008BD00000000C40900206CC0000858
:1002400081F0004102E000BF83F0004330B54FEA87
:1002500041044FEA430594EA050F08BF90EA020FF4
:100260001FBF54EA000C55EA020C7FEA645C7FEA87
:10027000655C00F0E2804FEA5454D4EB5555B8BFAA
:100280006D420CDD2C4480EA020281EA030382EA1B
:10029000000083EA010180EA020281EA0303362DAD
:1002A00088BF30BD11F0004F4FEA01314FF4801C80
:1002B0004CEA113102D0404261EB410113F0004F92
:1002C0004FEA03334CEA133302D0524263EB430349
:1002D00094EA050F00F0A780A4F10104D5F1200EE7
:1002E0000DDB02FA0EFC22FA05F2801841F1000142
:1002F00003FA0EF2801843FA05F359410EE0A5F116
:1003000020050EF1200E012A03FA0EFC28BF4CF046
:10031000020C43FA05F3C01851EBE37101F00045FC
:1003200007D54FF0000EDCF1000C7EEB00006EEB09
:100330000101B1F5801F1BD3B1F5001F0CD3490893
:100340005FEA30004FEA3C0C04F101044FEA4452EA
:1003500012F5800F80F09A80BCF1004F08BF5FEA71
:10036000500C50F1000041EB045141EA050130BD51
:100370005FEA4C0C404141EB0101013C28BFB1F563
:10038000801FE9D291F0000F04BF01460020B1FAAE
:1003900081F308BF2033A3F10B03B3F120020CDA81
:1003A0000C3208DD02F1140CC2F10C0201FA0CF05F
:1003B00021FA02F10CE002F11402D8BFC2F1200CC4
:1003C00001FA02F120FA0CFCDCBF41EA0C0190407A
:1003D000E41AA2BF01EB0451294330BD6FEA0404C3
:1003E0001F3C1CDA0C340EDC04F11404C4F12002AE
:1003F00020FA04F001FA02F340EA030021FA04F3C0
:1004000045EA030130BDC4F10C04C4F1200220FA16
:1004100002F001FA04F340EA0300294630BD21FA54
:1004200004F0294630BD94F0000F83F4801306BF1A
:1004300081F480110134013D4EE77FEA645C18BF0E
:100440007FEA655C29D094EA050F08BF90EA020FA5
:1004500005D054EA000C04BF1946104630BD91EA9D
:10046000030F1EBF0021002030BD5FEA545C05D1A0
:100470004000494128BF41F0004130BD14F58004DF
:100480003CBF01F5801130BD01F0004545F0FE4153
:1004900041F470014FF0000030BD7FEA645C1ABF88
:1004A000194610467FEA655C1CBF0B46024650EABF
:1004B000013406BF52EA033591EA030F41F40021EB
:1004C00030BD00BF90F0000F04BF0021704730B571
:1004D0004FF4806404F132044FF000054FF0000146
:1004E00050E700BF90F0000F04BF0021704730B507
:1004F0004FF4806404F1320410F0004548BF4042DC
:100500004FF000013EE700BF42004FEAE2014FEA30
:1005100031014FEA02701FBF12F07F4393F07F4F0B
:1005200081F06051704732F07F4208BF704793F00E
:100530007F4F04BF41F40021704730B54FF4607421
:1005400001F0004521F000411CE700BF50EA010224
:1005500008BF704730B54FF000050AE050EA0102CD
:1005600008BF704730B511F0004502D5404261EB3D
:1005700041014FF4806404F132045FEA915C3FF47E
:10058000D8AE4FF003025FEADC0C18BF03325FEA1B
:10059000DC0C18BF033202EBDC02C2F1200300FACC
:1005A00003FC20FA02F001FA03FE40EA0E0021FAF1
:1005B00002F11444BDE600BF70B54FF0FF0C4CF4DF
:1005C000E06C1CEA11541DBF1CEA135594EA0C0F91
:1005D00095EA0C0F00F0DEF82C4481EA030621EACC
:1005E0004C5123EA4C5350EA013518BF52EA033507
:1005F00041F4801143F4801338D0A0FB02CE4FF0B9
:100600000005E1FB02E506F00042E0FB03E54FF0E8
:100610000006E1FB03569CF0000F18BF4EF0010EE0
:10062000A4F1FF04B6F5007F64F5407404D25FEADC
:100630004E0E6D4146EB060642EAC62141EA55518F
:100640004FEAC52040EA5E504FEACE2EB4F1FD0CD1
:1006500088BFBCF5E06F1ED8BEF1004F08BF5FEA4F
:10066000500E50F1000041EB045170BD06F0004601
:1006700046EA010140EA020081EA0301B4EB5C04AE
:10068000C2BFD4EB0C0541EA045170BD41F48011A6
:100690004FF0000E013C00F3AB8014F1360FDEBFCB
:1006A000002001F0004170BDC4F10004203C35DAA7
:1006B0000C341BDC04F11404C4F1200500FA05F32A
:1006C00020FA04F001FA05F240EA020001F00042CB
:1006D00021F0004110EBD37021FA04F642EB060141
:1006E0005EEA430E08BF20EAD37070BDC4F10C046B
:1006F000C4F1200500FA04F320FA05F001FA04F22F
:1007000040EA020001F0004110EBD37041F100011A
:100710005EEA430E08BF20EAD37070BDC4F1200525
:1007200000FA05F24EEA020E20FA04F301FA05F28D
:1007300043EA020321FA04F001F0004121FA04F235
:1007400020EA020000EBD3705EEA430E08BF20EA05
:10075000D37070BD94F0000F0FD101F0004640003F
:1007600041EB010111F4801F08BF013CF7D041EAC1
:10077000060195F0000F18BF704703F000465200C5
:1007800043EB030313F4801F08BF013DF7D043EA96
:100790000603704794EA0C0F0CEA135518BF95EA4C
:1007A0000C0F0CD050EA410618BF52EA4306D1D1D3
:1007B00081EA030101F000414FF0000070BD50EAF2
:1007C000410606BF1046194652EA430619D094EA7C
:1007D0000C0F02D150EA013613D195EA0C0F05D166
:1007E00052EA03361CBF104619460AD181EA0301BA
:1007F00001F0004141F0FE4141F470014FF0000072
:1008000070BD41F0FE4141F4780170BD70B54FF00C
:10081000FF0C4CF4E06C1CEA11541DBF1CEA13558C
:1008200094EA0C0F95EA0C0F00F0A7F8A4EB05046E
:1008300081EA030E52EA03354FEA013100F0888065
:100840004FEA03334FF0805545EA131343EA12632E
:100850004FEA022245EA111545EA10654FEA0026E3
:100860000EF000419D4208BF964244F1FD0404F59C
:10087000407402D25B084FEA3202B61A65EB0305F8
:100880005B084FEA32024FF480104FF4002CB6EBB5
:10089000020E75EB030E22BFB61A754640EA0C0035
:1008A0005B084FEA3202B6EB020E75EB030E22BF75
:1008B000B61A754640EA5C005B084FEA3202B6EBB6
:1008C000020E75EB030E22BFB61A754640EA9C0075
:1008D0005B084FEA3202B6EB020E75EB030E22BF45
:1008E000B61A754640EADC0055EA060E18D04FEA03
:1008F000051545EA16754FEA06164FEAC30343EAA3
:1009000052734FEAC2025FEA1C1CC0D111F4801F6F
:100910000BD141EA00014FF000004FF0004CB6E768
:1009200011F4801F04BF01430020B4F1FD0C88BF07
:10093000BCF5E06F3FF6AFAEB5EB030C04BFB6EB12
:10094000020C5FEA500C50F1000041EB045170BD05
:100950000EF0004E4EEA113114EB5C04C2BFD4EB32
:100960000C0541EA045170BD41F480114FF0000EB6
:10097000013C90E645EA060E8DE60CEA135594EA32
:100980000C0F08BF95EA0C0F3FF43BAF94EA0C0F35
:100990000AD150EA01347FF434AF95EA0C0F7FF4AA
:1009A00025AF104619462CE795EA0C0F06D152EAFE
:1009B00003353FF4FDAE1046194622E750EA4106E2
:1009C00018BF52EA43067FF4C5AE50EA41047FF4F3
:1009D0000DAF52EA43057FF4EBAE12E74FF0FF3C58
:1009E00006E000BF4FF0010C02E000BF4FF0010C29
:1009F0004DF804CD4FEA410C7FEA6C5C4FEA430CA2
:100A000018BF7FEA6C5C1BD001B050EA410C0CBFF0
:100A100052EA430C91EA030F02BF90EA020F002052
:100A2000704710F1000F91EA030F58BF994208BFB9
:100A300090422CBFD8176FEAE37040F00100704776
:100A40004FEA410C7FEA6C5C02D150EA013C07D1CD
:100A50004FEA430C7FEA6C5CD6D152EA033CD3D018
:100A60005DF8040B704700BF8446104662468C4612
:100A70001946634600E000BF01B5FFF7B7FF002845
:100A800048BF10F1000F01BD4DF808EDFFF7F4FF6E
:100A90000CBF012000205DF808FB00BF4DF808EDF9
:100AA000FFF7EAFF34BF012000205DF808FB00BF1C
:100AB0004DF808EDFFF7E0FF94BF012000205DF83E
:100AC00008FB00BF4DF808EDFFF7CEFF94BF0120F3
:100AD00000205DF808FB00BF4DF808EDFFF7C4FFEC
:100AE00034BF012000205DF808FB00BF4FEA41023F
:100AF00012F5001215D211D56FF47873B3EB625270
:100B000012D94FEAC12343F0004343EA505311F096
:100B1000004F23FA02F018BF404270474FF0000028
:100B2000704750EA013005D111F0004008BF6FF066
:100B3000004070474FF00000704700BF4A0011D2DC
:100B400012F5001211D20DD56FF47873B3EB625227
:100B50000ED44FEAC12343F0004343EA505323FA33
:100B600002F070474FF00000704750EA013002D1A8
:100B70004FF0FF3070474FF0000070474FEA4102DE
:100B8000B2F1E04324BFB3F5001CDCF1FE5C0DD9EB
:100B900001F0004C4FEAC0024CEA5070B2F1004F35
:100BA00040EB830008BF20F00100704711F0804F38
:100BB00021D113F13872BCBF01F00040704741F4FD
:100BC00080114FEA5252C2F11802C2F1200C10FA01
:100BD0000CF320FA02F018BF40F001004FEAC123E5
:100BE0004FEAD32303FA0CFC40EA0C0023FA02F389
:100BF0004FEA4303CCE77FEA625307D150EA01335F
:100C00001EBF4FF0FE4040F44000704701F000402E
:100C100040F0FE4040F40000704700BF80F000400C
:100C200002E000BF81F0004142001FBF5FEA4103C4
:100C300092EA030F7FEA226C7FEA236C6AD04FEAC4
:100C40001262D2EB1363C1BFD21841404840414009
:100C5000B8BF5B42192B88BF704710F0004F40F4BB
:100C6000000020F07F4018BF404211F0004F41F4D7
:100C7000000121F07F4118BF494292EA030F3FD0A3
:100C8000A2F1010241FA03FC10EB0C00C3F12003B6
:100C900001FA03F100F0004302D5494260EB400045
:100CA000B0F5000F13D3B0F1807F06D340084FEAB0
:100CB000310102F10102FE2A51D2B1F1004F40EBA5
:100CC000C25008BF20F0010040EA0300704749000D
:100CD00040EB0000013A28BFB0F5000FEDD2B0FAAA
:100CE00080FCACF1080CB2EB0C0200FA0CF0AABFCD
:100CF00000EBC25052421843BCBFD040184370476B
:100D000092F0000F81F4000106BF80F40000013270
:100D1000013BB5E74FEA41037FEA226C18BF7FEA47
:100D2000236C21D092EA030F04D092F0000F08BF89
:100D30000846704790EA010F1CBF0020704712F070
:100D40007F4F04D1400028BF40F00040704712F1AF
:100D500000723CBF00F50000704700F0004343F014
:100D6000FE4040F4000070477FEA226216BF08464A
:100D70007FEA23630146420206BF5FEA412390EA0D
:100D8000010F40F4800070474FF0000304E000BF03
:100D900010F0004348BF40425FEA000C08BF7047B4
:100DA00043F0964301464FF000001CE050EA010278
:100DB00008BF70474FF000030AE000BF50EA01028D
:100DC00008BF704711F0004302D5404261EB41017A
:100DD0005FEA010C02BF84460146002043F0B6439F
:100DE00008BFA3F18053A3F50003BCFA8CF2083AC4
:100DF000A3EBC25310DB01FA02FC634400FA02FCCD
:100E0000C2F12002BCF1004F20FA02F243EB0200D3
:100E100008BF20F00100704702F1200201FA02FC35
:100E2000C2F1200250EA4C0021FA02F243EB020028
:100E300008BF20EADC7070474FF0FF0C1CEAD0526C
:100E40001EBF1CEAD15392EA0C0F93EA0C0F6FD02D
:100E50001A4480EA010C400218BF5FEA41211ED00B
:100E60004FF0006343EA501043EA5111A0FB0131F7
:100E70000CF00040B1F5000F3EBF490041EAD371CC
:100E80005B0040EA010062F17F02FD2A1DD8B3F148
:100E9000004F40EBC25008BF20F00100704790F0B7
:100EA000000F0CF0004C08BF49024CEA502040EA09
:100EB00051207F3AC2BFD2F1FF0340EAC2507047CF
:100EC00040F400004FF00003013A5DDC12F1190F0D
:100ED000DCBF00F000407047C2F10002410021FA7F
:100EE00002F1C2F1200200FA02FC5FEA310040F197
:100EF000000053EA4C0308BF20EADC70704792F010
:100F0000000F00F0004C02BF400010F4000F013A47
:100F1000F9D040EA0C0093F0000F01F0004C02BF42
:100F2000490011F4000F013BF9D041EA0C018FE7B1
:100F30000CEAD15392EA0C0F18BF93EA0C0F0AD0B7
:100F400030F0004C18BF31F0004CD8D180EA0100DD
:100F500000F00040704790F0000F17BF90F0004F76
:100F6000084691F0000F91F0004F14D092EA0C0F58
:100F700001D142020FD193EA0C0F03D14B0218BFEB
:100F8000084608D180EA010000F0004040F0FE4031
:100F900040F40000704740F0FE4040F440007047CD
:100FA0004FF0FF0C1CEAD0521EBF1CEAD15392EA4C
:100FB0000C0F93EA0C0F69D0A2EB030280EA010C3C
:100FC00049024FEA402037D04FF0805343EA1111D5
:100FD00043EA10130CF000408B4238BF5B0042F133
:100FE0007D024FF4000C8B4224BF5B1A40EA0C00D8
:100FF000B3EB510F24BFA3EB510340EA5C00B3EB0A
:10100000910F24BFA3EB910340EA9C00B3EBD10FF7
:1010100024BFA3EBD10340EADC001B0118BF5FEA49
:101020001C1CE0D1FD2A3FF650AF8B4240EBC25072
:1010300008BF20F0010070470CF0004C4CEA502033
:101040007F32C2BFD2F1FF0340EAC250704740F482
:1010500000004FF00003013A37E792F0000F00F074
:10106000004C02BF400010F4000F013AF9D040EAF2
:101070000C0093F0000F01F0004C02BF490011F486
:10108000000F013BF9D041EA0C0195E70CEAD1537E
:1010900092EA0C0F08D142027FF47DAF93EA0C0F65
:1010A0007FF470AF084676E793EA0C0F04D14B0249
:1010B0003FF44CAF08466EE730F0004C18BF31F0FB
:1010C000004CCAD130F000427FF45CAF31F00043F5
:1010D0007FF43CAF5FE700BF4FF0FF3C06E000BF8E
:1010E0004FF0010C02E000BF4FF0010C4DF804CDB1
:1010F0004FEA40024FEA41037FEA226C18BF7FEAC1
:10110000236C11D001B052EA530C18BF90EA010FC2
:1011100058BFB2EB030088BFC81738BF6FEAE17051
:1011200018BF40F0010070477FEA226C02D15FEAED
:10113000402C05D17FEA236CE4D15FEA412CE1D059
:101140005DF8040B704700BF844608466146FFE720
:101150000FB5FFF7C9FF002848BF10F1000F0FBD02
:101160004DF808EDFFF7F4FF0CBF012000205DF8FB
:1011700008FB00BF4DF808EDFFF7EAFF34BF012080
:1011800000205DF808FB00BF4DF808EDFFF7E0FF19
:1011900094BF012000205DF808FB00BF4DF808ED6A
:1011A000FFF7D2FF94BF012000205DF808FB00BFCD
:1011B0004DF808EDFFF7C8FF34BF012000205DF8AF
:1011C00008FB00BF42000ED2B2F1FE4F0BD34FF02E
:1011D0009E03B3EB126209D44FEA002343F00043AD
:1011E00023FA02F070474FF00000704712F1610FD0
:1011F00001D1420202D14FF0FF3070474FF00000A2
:10120000704700BF53B94AB9002908BF00281CBF66
:101210004FF0FF314FF0FF3000F074B9ADF1080C22
:101220006DE904CE00F006F8DDF804E0DDE9022304
:1012300004B070472DE9F047089E0D4604468846E5
:10124000002B4DD18A42944668D9B2FA82F252B14B
:1012500001FA02F3C2F1200120FA01F10CFA02FCBA
:1012600041EA030894404FEA1C45210CB8FBF5FE07
:101270001FFA8CF705FB1E8341EA03430EFB07F1BF
:1012800099420BD91CEB03030EF1FF3080F01E8155
:10129000994240F21B81AEF1020E63445B1AA4B284
:1012A000B3FBF5F005FB103344EA034400FB07F7FA
:1012B000A7420AD91CEB040400F1FF3380F0088137
:1012C000A74240F2058164440238E41B40EA0E4024
:1012D00000211EB1D4400023C6E90043BDE8F087D9
:1012E0008B4208D9002E00F0EE800021C6E90005EF
:1012F0000846BDE8F087B3FA83F100294AD1AB4232
:1013000002D3824200F2F980841A65EB03030120C4
:101310009846002EE2D0C6E90048DFE702B9FFDEBA
:10132000B2FA82F2002A40F09180A1EB0C054FEA5C
:101330001C471FFA8CFE0121B5FBF7F307FB135086
:10134000250C45EA00450EFB03F0A84208D91CEB2A
:10135000050503F1FF3802D2A84200F2CB804346D4
:101360002D1AA4B2B5FBF7F007FB105544EA05446B
:101370000EFB00FEA64508D91CEB040400F1FF3566
:1013800002D2A64500F2BB802846A4EB0E0440EA38
:1013900003409EE7C1F120078B4022FA07FC4CEA8C
:1013A000030C20FA07F405FA01F31C43FD404FEA51
:1013B0001C4900FA01F3B5FBF9F8200C1FFA8CFE6A
:1013C00009FB185540EA054508FB0EF0A84202FA51
:1013D00001F20BD91CEB050508F1FF3A80F088807B
:1013E000A84240F28580A8F1020865442D1AA4B2F3
:1013F000B5FBF9F009FB105544EA054500FB0EFE6C
:10140000AE4508D91CEB050500F1FF346CD2AE45A2
:101410006AD90238654440EA0840A0FB0294A5EB73
:101420000E05A542C846A64656D353D05EB1B3EBCF
:10143000080265EB0E0505FA07F722FA01F3CD4025
:101440001F43C6E900750021BDE8F087C2F1200303
:1014500020FA03F10CFA02FC25FA03F395400D4340
:101460004FEA1C471FFA8CFEB3FBF7F107FB113064
:101470002B0C43EA004301FB0EF0984204FA02F4FD
:1014800008D91CEB030301F1FF382FD298422DD964
:10149000023963441B1AADB2B3FBF7F007FB1033FC
:1014A00045EA034500FB0EF3AB4208D91CEB0505EA
:1014B00000F1FF3816D2AB4214D902386544ED1A58
:1014C00040EA014138E73146304607E78646E5E61F
:1014D0001846FAE64B45A9D2B9EB020864EB0C0EAC
:1014E0000138A3E74046EAE7204694E74146D1E7C2
:1014F000D0467BE7023B654432E7084609E764448F
:10150000023842E7704700BF000000000000000002
:1015100001F0FF01102A2BDB10F0070F08D010F8A4
:10152000013B013A8B422DD010F0070F42B3F6D1A8
:10153000F0B441EA012141EA014122F007047FF0C1
:1015400000070023F0E80256083C85EA010586EA18
:10155000010685FA47F5A3FA87F586FA47F6A5FA54
:1015600087F68EB9EED1F0BC01F0FF0102F0070260
:1015700032B110F8013B013A83EA010313B1F8D10B
:101580000020704701387047002D06BF35460338EC
:10159000073815F0010F07D1013015F4807F02BF25
:1015A000013015F4C03F0130F0BC0138704700BF76
:1015B000844641EA000313F003036DD1403A41D35E
:1015C00051F8043B40F8043B51F8043B40F8043B1D
:1015D00051F8043B40F8043B51F8043B40F8043B0D
:1015E00051F8043B40F8043B51F8043B40F8043BFD
:1015F00051F8043B40F8043B51F8043B40F8043BED
:1016000051F8043B40F8043B51F8043B40F8043BDC
:1016100051F8043B40F8043B51F8043B40F8043BCC
:1016200051F8043B40F8043B51F8043B40F8043BBC
:1016300051F8043B40F8043B51F8043B40F8043BAC
:10164000403ABDD2303211D351F8043B40F8043B4C
:1016500051F8043B40F8043B51F8043B40F8043B8C
:1016600051F8043B40F8043B103AEDD20C3205D35C
:1016700051F8043B40F8043B043AF9D2043208D054
:10168000D2071CBF11F8013B00F8013B01D30B88C6
:1016900003806046704700BF082A13D38B078DD0A4
:1016A00010F003038AD0C3F10403D21ADB071CBF76
:1016B00011F8013B00F8013B80D331F8023B20F8E0
:1016C000023B7BE7043AD9D3013A11F8013B00F819
:1016D000013BF9D20B7803704B7843708B788370A1
:1016E000604670470000000000000000000000009D
:1016F00000000000000000000000000000000000EA
:1017000090F800F06DE9024520F007016FF0000C41
:1017100010F0070491F820F040F049804FF00004E9
:101720006FF00700D1E9002391F840F000F10800C4
:1017300082FA4CF2A4FA8CF283FA4CF3A2FA8CF3FC
:101740004BBBD1E9022382FA4CF200F10800A4FA63
:101750008CF283FA4CF3A2FA8CF3E3B9D1E90423B7
:1017600082FA4CF200F10800A4FA8CF283FA4CF3EE
:10177000A2FA8CF37BB9D1E9062301F1200182FAA8
:101780004CF200F10800A4FA8CF283FA4CF3A2FAAE
:101790008CF3002BC6D0002A04BF04301A4612BABC
:1017A000B2FA82F2FDE8024500EBD2007047D1E9BF
:1017B000002304F00305C4F100004FEAC50514F04E
:1017C000040F91F840F00CFA05F562EA05021CBF1F
:1017D00063EA050362464FF00004A9E74FEA410CB3
:1017E0007FEA6C5C02D150EA013C0AD14FEA430C1B
:1017F0007FEA6C5C02D152EA033C02D14FF0000058
:1018000070474FF001007047962303FB00F000BFC4
:1018100003460138002BFAD17047000070B58AB03A
:101820002D4BDA6C42F00202DA64DA6C02F002024A
:101830000192019ADA6C42F00202DA64DA6C02F088
:1018400002020292029ADA6C42F00202DA64DA6C64
:1018500002F002020392039ADA6C42F00202DA64A6
:10186000DB6C03F002030493049B4FF400460596DF
:101870000125069503230893184C05A9204601F07D
:1018800093FD2A463146204601F083FE4FF4804303
:1018900005930023069305A9204601F085FD4FF42A
:1018A00000560596069505A9204601F07DFD2A46BD
:1018B0003146204601F06DFE4FF400660596069510
:1018C00005A9204601F070FD2A463146204601F068
:1018D00060FE0AB070BD00BF001002400004004866
:1018E000F8B50546002426460BE001224FF40051CE
:1018F000194801F04EFE15E00120FFF785FF013683
:10190000F6B2072E26D801224FF40041124801F00A
:1019100040FE15F0800FE8D100224FF400510E4830
:1019200001F037FE6D00EDB20120FFF76DFF0A4FA9
:1019300000224FF40041384601F02BFE6400E4B26F
:101940004FF48041384601F01DFE0028D4D0013408
:10195000E4B2D1E72046F8BD0004004838B5C5B26E
:10196000000AFFF7BDFF04462846FFF7B9FF24022F
:10197000A4B280B2204338BD70B506460024194D8C
:1019800022464FF40061284601F003FE214630460E
:10199000FFF7E4FF0146144803F084FF01224FF4EF
:1019A0000061284601F0F5FD0A2001F061F82246A9
:1019B0004FF40061284601F0ECFD21462046FFF778
:1019C000CDFF04460146094803F06CFF01224FF4A5
:1019D0000061284601F0DDFD0A2001F049F82046AB
:1019E00070BD00BF0004004888C0000898C000080F
:1019F00010B543F6FC70FFF7BFFFC0F30B0443F6CE
:101A0000FF70FFF7B9FFC0F30D00FFF7C1F90749F9
:101A1000FFF712FA4FF06251FFF70EFAFFF7D2FB11
:101A200082B22146024803F03DFF10BD0000B443DE
:101A3000A4C0000808B5FFF7F1FEFFF7D9FF08BD05
:101A400010B58CB0002409940A940B9420222146EE
:101A500001A803F0D5FE20484FF0A04303604FF4E7
:101A6000403343608460C460046144610423836143
:101A7000047744770123036280F82440C46204633E
:101A800080F83840C46380F8404001F005F8C8B9D8
:101A90000023099309A9104801F090FBA8B90F4B46
:101AA000019306230293002303937F2204920422CE
:101AB000059206930DEB0201074801F00DF938B9C4
:101AC0000CB010BD00F022FCE2E700F01FFCE6E7DE
:101AD00000F01CFCF4E700BFDC0900200800900CBB
:101AE00010B598B0044600211391149115911691E8
:101AF0001791442202A803F083FE2368B3F1A04F9C
:101B000001D018B010BD4FF4004302934FF00053C2
:101B1000119302A802F0E0F9F0B9114BDA6C42F42B
:101B20000052DA64DA6C02F400520092009ADA6C25
:101B300042F00102DA64DB6C03F001030193019BC4
:101B40000C231393032314930023159313A94FF02D
:101B5000904001F029FCD4E700F0D8FBDDE700BF9E
:101B60000010024010B501224FF400614FF0904088
:101B700001F00FFD094C0021204603F043F8042139
:101B8000204603F03FF80821204603F03BF8236885
:101B900000225A639A63DA6310BD00BF5C0A00201A
:101BA00010B504460846FFF7F3F82146FFF744F95D
:101BB00010BD00000000000010B5FEF7A5FC0EA34C
:101BC000D3E9002309F076FEFEF7D8FF0446002192
:101BD000FFF7E4FA08B1204610BD2046FEF794FC5A
:101BE00005A3D3E90023FEF731FBFEF7C7FF044648
:101BF000F1E700BFAFF300804AD8124DFB21194036
:101C000038B5FEF781FC04460D466BA3D3E90023EB
:101C1000FEF744FF002838D169A3D3E9002320460A
:101C20002946FEF73BFF00285BD167A3D3E90023D9
:101C300020462946FEF732FF002800F08D8064A37D
:101C4000D3E9002320462946FEF7B6FC04460D469C
:101C500000220023FEF736FF002872D00022624BDC
:101C600020462946FEF7F2FAFEF740FFA0F5C770BE
:101C70005E4B53F82000FEF735FC57A3D3E9002351
:101C8000FEF79AFCFEF77AFF21E051A3D3E9002387
:101C900020462946FEF790FC04460D46002200230C
:101CA000FEF710FFA0B100224F4B20462946FEF759
:101CB000CDFAFEF71BFF4D4B53F82000FEF712FC48
:101CC00047A3D3E90023FEF777FCFEF757FF38BDA3
:101CD0000022454B20462946FEF7B6FAFEF706FFDE
:101CE000E9E73BA3D3E9002320462946FEF764FC3D
:101CF00004460D4600220023FEF7E4FEB0B10022A8
:101D0000394B20462946FEF7A1FAFEF7EFFEC0F553
:101D1000C770364B53F82000FEF7E4FB30A3D3E93D
:101D20000023FEF749FCFEF729FFD0E700222E4BE7
:101D300020462946FEF788FAFEF7D8FEC0F5C770A0
:101D4000E7E70022284B20462946FEF77DFAFEF7FA
:101D5000CDFEA0F5C7708BE71DA3D3E90023204675
:101D60002946FEF729FC04460D4600220023FEF713
:101D7000A9FEB0B100221C4B20462946FEF766FAA8
:101D8000FEF7B4FEC0F54770184B53F82000FEF77D
:101D9000A9FB11A3D3E90023FEF70EFCFEF7EEFE2C
:101DA00095E70022104B20462946FEF74DFAFEF734
:101DB0009DFEC0F54770E7E7F4D64354FB21F93F99
:101DC000EA2E4454FB210940320D337F7CD9124066
:101DD0009CA223B9FCAB5F402D431CEBE2361ABF3B
:101DE0002D431CEBE2361A3F0000E03FB8C000086C
:101DF00010B5FEF789FB0EA3D3E9002309F05AFDC5
:101E0000FEF7BCFE04460021FFF7C8F908B12046E2
:101E100010BD2046FEF778FB05A3D3E90023FEF7AB
:101E200015FAFEF7ABFE0446F1E700BFAFF3008002
:101E3000EA2E4454FB21194008B501460248A0EBA4
:101E40006100FEF7F9FF08BD865A375F0000000009
:101E50002DE9F04F83B006460D461746002128466F
:101E6000FFF77EF9002840F0B38029462846FEF7A8
:101E7000E3FF044631463046FEF7DEFF01462046CA
:101E8000FEF7D2FEFFF7D8FFB14B1968FFF788F8CD
:101E900004462846FEF738FB804689463046FEF762
:101EA00033FB42464B4609F003FD804689463846DF
:101EB000FEF72AFB42464B46FEF7C8F9FEF75EFEE8
:101EC000FFF796FF05462046FEF71EFB96A3D3E9D3
:101ED0000023FEF701FE00B19E4C2046FEF714FBE6
:101EE00093A3D3E90023FEF7D9FD00B19A4C28460D
:101EF000FEF70AFB06460F468FA3D3E90023FEF741
:101F000085FC0022954BFEF7A1F9FEF717FE8146EE
:101F1000FEF7D8FA82468B4687A3D3E90023FEF763
:101F20004BFB32463B46FEF78FF9FEF727FEFFF7E5
:101F300067FEFEF7E9FA82A3D3E90023FEF73CFB34
:101F4000CDE900012046FEF7DFFA04460D460246C1
:101F50000B46DDE90001FEF72FFBFEF70FFE804682
:101F600000227E4B50465946FEF76EF972A3D3E924
:101F70000023FEF721FB02460B4630463946FEF7AA
:101F800063F9FEF7FBFDFFF73BFEFEF7BDFA6CA31E
:101F9000D3E90023FEF710FB02460B4620462946F4
:101FA000FEF70AFBFEF7EAFD044641464FF07E507D
:101FB000FEF738FE2146FEF735FE054609F1FF33F0
:101FC000052B00F2AA80DFE803F01746596C7F92D8
:101FD0005F4B19683046FEF7E3FF04463846FEF7CC
:101FE00093FA59A3D3E90023FEF730F9FEF7C6FDB3
:101FF000FFF7FEFE054666E721464046FEF714FE63
:1020000007464FF07C512846FEF716FF064601466C
:102010003846FEF709FE054621463046FEF704FE27
:1020200007464F492846FEF707FF4E4B1C68FFF74F
:10203000C9F860634A493846FEF7FEFEFFF7C2F86A
:10204000A06347493046FEF7F7FEFFF7BBF8E063B1
:1020500003B0BDE8F08F4FF07C51FEF7EDFE064671
:102060004146FEF7E1FD054621464046FEF7DCFD10
:1020700001463046FEF7D8FD0746D2E74FF07C51C7
:10208000FEF7DAFE054621464046FEF7CDFD29461D
:10209000FEF7CAFD074629462046FEF7C5FD06465F
:1020A000BFE74FF07C51FEF7C7FE054601464046AC
:1020B000FEF7BAFD074621464046FEF7B5FD294624
:1020C000FEF7B2FD0646ACE74FF07C51FEF7B4FEDA
:1020D00007462146FEF7A8FD054621464046FEF785
:1020E000A3FD01463846FEF79FFD064699E72146C7
:1020F0004046FEF799FD04464FF07C512846FEF716
:102100009BFE074601462046FEF78EFD05464146EA
:102110003846FEF789FD064683E7002637463546F2
:102120007FE700BFAFF30080105839B4C876E23FB4
:10213000105839B4C876E2BF40AF2D3852C1F03FD5
:102140006B6058E87AB6FB3FF4D64354FB21F93F65
:102150000400002046B6133F46B613BF0000F03F10
:1021600000007A445C0A002038B504464FF0E023B2
:102170009D69214B1868A84226D9401BFEF704FE32
:102180001E49FEF70DFFFEF7BFF919A3D3E900239F
:10219000FEF712FAFEF7F2FC174B1D602146FEF720
:1021A0004BFE174C2168FEF73FFDFFF705FD206051
:1021B000144B1C680621FFF7F3FC02460021204661
:1021C000FFF746FE204638BD401B00F1FF1000F52A
:1021D0007F40FEF7D9FD0949FEF7E2FEFEF794F9CC
:1021E00003A3D3E90023FEF7E7F9FEF7C7FCD3E723
:1021F0008DEDB5A0F7C6B03E480A0020000016439A
:102200004C0A002000000020F0B589B0002403949F
:102210000494059406940794264BDA6C42F020024D
:10222000DA64DA6C02F020020092009ADA6C42F072
:102230000102DA64DA6C02F001020192019ADA6CAE
:1022400042F00202DA64DB6C03F002030293029BA9
:10225000224640F601014FF0904001F09AF9164DE8
:1022600022464FF46841284601F093F940F60103F5
:102270000393012704970594069403A94FF0904017
:1022800001F092F84FF40063039304970226059639
:10229000069403A9284601F087F84FF4604303939E
:1022A00004970596069603A9284601F07DF809B023
:1022B000F0BD00BF001002400004004808B502480D
:1022C00002F0F2F808BD00BFA80A002008B50368B4
:1022D000B3F1804F00D008BD094A13680133136081
:1022E000084A9342F7D1084803F0DCFA01214FF085
:1022F000904001F053F9024B00221A60EBE700BF57
:10230000500A0020A0860100D8C3000872B6FEE77C
:1023100000B595B03822002106A803F071FA002319
:10232000019302930393049305934FF4007001F01B
:102330003FF9012306934FF48033079302230D9353
:1023400003220E9204220F924B22109211931293A9
:10235000139306A801F0E4F980B90F230193032336
:102360000293002303930493059304210DEB0100D2
:1023700001F08CFC20B915B05DF804FBFFF7C6FF37
:10238000FFF7C4FF08B500F051FBFFF7C1FFFFF7EF
:102390003BFFFFF755FB00F0D5F900F067FA00F0BE
:1023A000F1F800F025F9FFF745FB054800F00CF8BF
:1023B000FFF784FFFFF7D6FB0248FFF7D5FEFBE7E8
:1023C000400B00200000204108B5054B1860054B6C
:1023D0001868002302221946806803F077FA08BDC6
:1023E000540A002014000020022801D80120704760
:1023F00008B503F0DBF909230360002008BD0000E5
:1024000010B5013801280AD814464FF0FF3392B2B4
:102410000748006802F0C7FF40B9204610BD03F02E
:10242000C5F9092303604FF0FF30F7E70520F5E712
:10243000540A0020022801D80020704708B503F094
:10244000B5F9092303604FF0FF3008BD08B503F06C
:10245000ADF9092303604FF0FF3008BD08B548B956
:102460004FF0FF3301220848006803F00BF840B931
:10247000012008BD03F09AF9092303604FF0FF30F3
:10248000F7E70520F5E700BF540A002008B5022849
:1024900004D84FF400534B60002008BD03F086F9C8
:1024A00009230360F8E7000000B583B00B4B1A6EF8
:1024B00042F001021A661A6E02F001020092009ABE
:1024C0009A6D42F080529A659B6D03F080530193A0
:1024D000019B01F0F3F803B05DF804FB001002402B
:1024E000FEE7FEE7FEE7FEE7FEE77047704770474E
:1024F00008B500F0ABFA08BD08B5024802F01BF8B9
:1025000008BD00BFA80A002008B5024802F013F871
:1025100008BD00BFF40A00200120704708B503F091
:1025200045F9162303604FF0FF3008BD08B54FF0A2
:10253000FF31FFF7F3FFFEE710B503460C4A0D49E4
:102540000D48006840B10C4800680344521A934299
:1025500006D8094A136010BD0748084C0460F2E72A
:1025600003F024F90C2303604FF0FF30F3E700BFC2
:102570000080002000040000580A0020200C0020E9
:102580007047000000B589B00023049305930693BB
:10259000079301930293039314484FF08042026023
:1025A0000E22426083606322C2600361836102F095
:1025B0002DF990B94FF48053049304A90B4802F00D
:1025C00075FA68B900230193039301A9074802F043
:1025D000C5FB40B909B05DF804FBFFF797FEE9E7DA
:1025E000FFF794FEEEE7FFF791FEF3E7A80A00205D
:1025F00000B589B0002304930593069307930193D4
:10260000029303931448154A026095224260836046
:102610000922C2600361836102F0F8F890B94FF4B7
:102620008053049304A90C4802F040FA68B90023CF
:102630000193039301A9084802F090FB40B909B047
:102640005DF804FBFFF762FEE9E7FFF75FFEEEE7E8
:10265000FFF75CFEF3E700BFF40A0020000400402F
:1026600000B585B003681F4A934208D0B3F1804F8C
:1026700010D01D4A934221D005B05DF804FB1B4BDE
:102680001A6E42F400621A661B6E03F40063019333
:10269000019BF1E703F504339A6D42F001029A655C
:1026A0009B6D03F001030293029B002211461C2044
:1026B00000F020FE1C2000F055FEDDE70B4B9A6D6C
:1026C00042F002029A659B6D03F002030393039BA1
:1026D000002211461D2000F00DFE1D2000F042FEDC
:1026E000CAE700BF002C0140000400400010024077
:1026F00000B587B0002301930293039304930593DD
:1027000002680F4B9A4202D007B05DF804FB03F554
:102710006443DA6C42F00102DA64DB6C03F001031B
:102720000093009B4FF4E06301930223029306237E
:10273000059301A94FF0904000F036FEE4E700BF9A
:10274000002C014010B59CB00024189419941A94E0
:102750001B941594169417940E940F94109411943E
:102760001294139414943422214601A803F048F8DB
:102770003C483D4B036002234360846040F2E733F2
:10278000C36004614461846102F040F8002851D1C3
:102790004FF48053189318A9324802F087F90028A3
:1027A0004BD1304802F062F8002849D1002315933C
:1027B0001693179315A92B4802F0D0FA002842D19E
:1027C00060230E934FF4FA730F930022109211922C
:1027D0001292139214920EA9224802F0BDF800281A
:1027E00034D104220EA91F4802F0B6F8002830D1D7
:1027F00008220EA91B4802F0AFF868BB0023019322
:1028000002930393049305934FF4005206920793A7
:10281000089309934FF000720A920B930C930D9357
:1028200001A9104802F0E4FAC8B90E48FFF760FFAA
:102830001CB010BDFFF76AFDAAE7FFF767FDB0E720
:10284000FFF764FDB2E7FFF761FDB9E7FFF75EFD53
:10285000C7E7FFF75BFDCBE7FFF758FDCEE7FFF7D4
:1028600055FDE2E75C0A0020002C014008B517483E
:10287000174B03604FF4E133436000238360C36070
:1028800003610C2242618361C3610362436283621C
:1028900002F0C8FE70B900210C4802F03CFF60B99C
:1028A00000210A4802F05CFF50B9084802F014FF0A
:1028B00048B908BDFFF72AFDEDE7FFF727FDEFE771
:1028C000FFF724FDF1E7FFF721FDF2E7400B0020C1
:1028D0000044004070B59AB004460021159116914D
:1028E000179118911991442204A802F089FF2268D7
:1028F000224B9A4201D01AB070BD0223049304A85F
:1029000001F0EAFA002835D11D4B9A6D42F40032ED
:102910009A659A6D02F400320192019ADA6C42F0E3
:102920000102DA64DA6C02F001020292029ADA6CB5
:1029300042F00202DA64DB6C03F002030393039BB0
:102940004FF400431593022616960024179418940A
:102950000725199515A94FF0904000F025FD082393
:102960001593169617941894199515A9054800F013
:102970001BFDC0E7FFF7CAFCC6E700BF00440040EC
:1029800000100240000400480D4885460D480E49DD
:102990000E4A002302E0D458C4500433C4188C42B9
:1029A000F9D30B4A0B4C002301E013600432A2421E
:1029B000FBD3FFF7E5FD02F0FFFEFFF7E3FCFEE7C8
:1029C0000080002000000020C0090020B4C80008DA
:1029D000C00900201C0C0020FEE70000104B1B6803
:1029E0000BB90120704710B504464FF47A70B0FB64
:1029F000F3F30C4A1068B0FBF3F000F0C1FC68B9C7
:102A00000F2C01D901200AE0002221464FF0FF30AF
:102A100000F070FC044B1C60002000E0012010BDA1
:102A20000C000020080000201000002010B503203A
:102A300000F04EFC0F20FFF7D1FF10B1012420461B
:102A400010BD0446FFF730FDF9E70000034A1368A4
:102A5000034909680B441360704700BFD00B002086
:102A60000C000020014B1868704700BFD00B0020FD
:102A700038B50446FFF7F6FF0546B4F1FF3F02D034
:102A8000044B1B681C44FFF7EDFF401BA042FAD328
:102A900038BD00BF0C00002030B583B00023019387
:102AA000002800F00D810446C36D13B323689A68B3
:102AB00012F0005F05D09A6822F0204222F03F0217
:102AC0009A602268936813F0805F1FD1936823F0A7
:102AD000104323F03F0343F080539360794B1B680E
:102AE0009B09794AA2FB03239B0901335B000193F5
:102AF00009E0FEF7F5FF0023236684F85830D5E798
:102B0000019B013B0193019B002BF9D12268936843
:102B100013F0805F40F09C80E36D43F01003E365A9
:102B2000236E43F0010323660120936813F004032E
:102B300000D00123E16D11F0100F40F0BA80002B9E
:102B400040F0B780E36D23F4817343F00203E36543
:102B5000936813F0010F15D14FF0A0439B6813F059
:102B6000010300D00123594A926812F0010200D0FB
:102B70000122134306D1636855498A6822F47C1206
:102B800013438B60627FE36B43EA4233E268134393
:102B9000A268134394F8242043EA0243012A59D03F
:102BA000E26A22B102F47872216B0A43134321686E
:102BB000CD68484A2A401343CB602268136923F04A
:102BC0004063616B0B43136121688B6813F004034E
:102BD00000D001238A6812F0080200D0012243BB12
:102BE0003ABB227F94F838305B0043EA8232CB68EC
:102BF00023F4804323F002031343CB60236973B3B0
:102C00002268136943F4803313612268D2F8C0301C
:102C100023F47F5323F03F0321690B43C2F8C030F4
:102C200094F84030012B29D02268136923F0010366
:102C300013616369012B33D02268136B23F00F03F8
:102C40001363E36D23F0030343F00103E36535E011
:102C500000206AE7A26A013A43EA4243A0E72268F9
:102C6000136923F4803313612268D2F8C03023F44F
:102C70007F5323F03F03C2F8C030D1E721680B69CE
:102C800023F4FF6323F00403626CA56C2A43E56C14
:102C90002A43256D2A43134343F001030B61C8E720
:102CA00021680B6B23F00F03226A013A13430B6375
:102CB000C7E7E36D43F01003E365012003B030BDC7
:102CC0000120FBE708000020632D3E0500010050B5
:102CD000000300500740F0FFF0B583B000220192DE
:102CE00090F85820012A00F05E820346012280F805
:102CF00058200568A86810F0040F09D0DA6D42F07A
:102D00002002DA650120002283F8582003B0F0BDCC
:102D10004C683035220A920002F00C02A85804F0E8
:102D20001F0E1F2404FA0EF420EA04000C68C4F3FA
:102D3000846C0CFA0EFC40EA0C00A85018688268FB
:102D400012F0040200D00122846814F0080400D0BC
:102D50000124002A4FD1002C4DD18D68B5F1004FD0
:102D60007CD00F6814307A0E920002F0040286586C
:102D7000C7F3045E4FF0070C0CFA0EFC26EA0C0CAD
:102D800005FA0EF54CEA050585501868426922F0EF
:102D9000004242614D691868C268C2F3C102520024
:102DA00005FA02F20E69042E70D0603050F82670D9
:102DB000A94D3D400F6807F0F8473A43154345F0E9
:102DC000004540F826501A680E698869603252F84A
:102DD000265025F08075284342F826001A680D69B0
:102DE000087F01284FD0603252F8250020F0007093
:102DF000044342F825401A68906810F0010F12D180
:102E00000868CD68954CA54200F0A780D2F8B04084
:102E1000C0F3120024EA0000C2F8B000C8688F4A6C
:102E2000904200F0A2800A688D490A4200F0B38106
:102E30008C49896801F0E0708B4CA24200F06281FD
:102E40008A4CA24200F05E81894CA24200F080814F
:102E5000884CA24200F08E81002054E70D681430A7
:102E60006A0E920002F004028658C5F30455072743
:102E700007FA05F526EA050585501868426942F00B
:102E80000042426186E74FF00074ACE7026E046EC8
:102E9000C4F384640A68C2F312057DBBC2F3846282
:102EA000944233D01C68626E606EC0F384600A681E
:102EB000C2F312057DBBC2F38462904233D01C681A
:102EC000A26EA06EC0F384600A68C2F312057DBBD7
:102ED000C2F38462904233D01C68E26EE06EC0F3AD
:102EE00084600A68C2F312057DBBC2F3846290421B
:102EF00081D1E26E22F00042E2667CE792FAA2F211
:102F000012B1B2FA82F2CBE72022C9E7026E22F0B8
:102F100000420266C6E792FAA2F212B1B2FA82F257
:102F2000CBE72022C9E7626E22F000426266C6E764
:102F300092FAA2F212B1B2FA82F2CBE72022C9E7EA
:102F4000A26E22F00042A266C6E792FAA2F212B185
:102F5000B2FA82F2CBE72022C9E7D2F8B040C0F340
:102F600012002043C2F8B00058E71C680A68C2F398
:102F70001205002D38D1900E013000F01F000928F5
:102F80008CBF00200120002876D0002D3BD1900E70
:102F90000130800600F0F840002D40D1960E013639
:102FA00006F01F070126BE403043002D45D1920E8A
:102FB000013202F01F0202EB42021205024388684E
:102FC00004F11406550EAD0005F004057459C2F362
:102FD00004524FF0070C0CFA02FC24EA0C0C90404F
:102FE0004CEA000070511EE792FAA2F048B1B0FA24
:102FF00080F0013000F01F0009288CBF0020012064
:10300000C1E72020F5E792FAA2F030B1B0FA80F0E3
:103010000130800600F0F840BEE72020F8E792FA81
:10302000A2F646B1B6FA86F6013606F01F0601276B
:1030300007FA06F6B8E72026F6E792FAA2F242B1BE
:10304000B2FA82F2013202F01F0202EB42021205D2
:10305000B4E72022F6E700BF00F0FF0300007F4046
:103060000000088000030050000021C31000C09041
:10307000000052C7000084CBCDB9900E013080060D
:1030800000F0F840FDB9960E013606F01F07012644
:10309000BE4030432DBB920E013202F01F0202EB04
:1030A00042021E3A120542F00072024387E792FA8A
:1030B000A2F030B1B0FA80F00130800600F0F840A4
:1030C000E0E72020F8E792FAA2F646B1B6FA86F6D3
:1030D000013606F01F06012707FA06F6D9E7202673
:1030E000F6E792FAA2F25AB1B2FA82F2013202F093
:1030F0001F0202EB42021E3A120542F00072D4E7B0
:103100002022F3E711F4000F7FF49EAE1A68B2F1AB
:10311000A04F01D00020F6E540F4000023498A6862
:1031200022F0E07210438860214A12689209214916
:10313000A1FB02129209013202EB420292000192BB
:10314000019A1AB1019A013A0192F9E70020DAE5F1
:1031500011F0807F7FF47CAE1968174A91421CD031
:1031600040F0807011498A6822F0E0721043886054
:103170000020C8E511F4800F11D119680E4A914260
:103180000FD040F480020948816821F0E0710A43C1
:1031900082600020B7E50020B5E50020B3E50020FF
:1031A000B1E50020AFE50220B0E500BF000300500C
:1031B00008000020632D3E050001005090F85820C3
:1031C000012A7ED010B49DB00346012280F8582019
:1031D0000022189219920068B0F1A04F39D0002255
:1031E0000192019A002A37D0926812F0040200D0AE
:1031F0000122806810F0040F54D1002A52D10A68CD
:10320000002A32D0304CA26822F46042486893F819
:1032100038C040EA4C300243A2604FF0A0429268AE
:1032200012F0010200D001222848806810F001004D
:1032300000D00120024340D1234CA26822F47162E5
:1032400022F00F020868896801430A43A260002047
:103250002DE01E4A0192C4E7DA6D42F02002DA65E1
:10326000002283F85820012024E017498A6822F4BC
:1032700060428A604FF0A042926812F0010200D0D2
:1032800001221249896811F0010100D001210A438D
:1032900015D10D498A6822F4716222F00F028A600A
:1032A000002004E0DA6D42F02002DA6501200022FD
:1032B00083F858201DB010BC70470020F7E70020AD
:1032C000F5E70220704700BF0003005000010050E6
:1032D000074AD36823F4E0631B041B0C000200F4CC
:1032E000E060034343F0BF6343F40033D3607047AF
:1032F00000ED00E000B5194BDB68C3F30223C3F116
:10330000070CBCF1040F28BF4FF0040C03F1040EAE
:10331000BEF1060F18D9033B4FF0FF3E0EFA0CFC2E
:1033200021EA0C0199400EFA03F322EA0303194340
:1033300000280BDB0901C9B200F1604000F56140D3
:1033400080F800135DF804FB0023E5E700F00F00B0
:103350000901C9B2024B1954F4E700BF00ED00E0C7
:1033600014ED00E0002807DB00F01F0240090123F4
:103370009340024A42F82030704700BF00E100E06D
:103380000138B0F1807F0BD24FF0E0235861054A3D
:10339000F02182F823100020986107221A617047FB
:1033A0000120704700ED00E070B582B0002365E0B9
:1033B00085685E000324B44025EA0405CC68B44067
:1033C0002C438460446824EA0C0C4C68C4F3001459
:1033D0009C4044EA0C04446061E0DD08083550F884
:1033E000256003F007044FEA840C0F2404FA0CF460
:1033F00026EA040E0C6904FA0CF444EA0E0440F8C0
:10340000254063E0052400E0002404FA0EF42C4378
:103410000CF1020C574D45F82C40574CA568D4438D
:1034200025EA0206D1F804C01CF4801F01D042EA4C
:103430000506514DAE60ED6804EA0506D1F804C0FA
:103440001CF4001F01D042EA05064B4DEE606D688A
:1034500004EA0506D1F804C01CF4003F01D042EA9A
:103460000506454D6E602D682C404E6816F4803F71
:1034700001D042EA0504404A146001330A6832FA76
:1034800003F474D04FF0010C0CFA03FC1CEA0202A6
:10349000F3D04C6804F00304013C012C88D94C683B
:1034A00004F00304032C0CD0C4685D004FF0030C3F
:1034B0000CFA05FC24EA0C0C8C68AC4044EA0C04C1
:1034C000C4604C6804F00304022C86D004684FEA00
:1034D000430E4FF0030C0CFA0EFC24EA0C0C4C6863
:1034E00004F0030404FA0EF444EA0C0404604C688B
:1034F00014F4403FC1D0214C256E45F001052566EE
:10350000246E04F001040194019C4FEA930C0CF129
:103510000205184C54F8255003F003044FEA840EBA
:103520000F2404FA0EF425EA0405B0F1904F3FF49D
:103530006BAF134CA04212D004F58064A04210D0AF
:1035400004F58064A0420ED004F58064A0420CD043
:1035500004F58064A0423FF455AF062455E70124EA
:1035600053E7022451E703244FE704244DE702B058
:1035700070BD00BF00000140000401400010024087
:10358000000400480369194201D00120704700205F
:1035900070470AB18161704781627047436901EAEF
:1035A000030221EA030141EA024181617047000000
:1035B000002836D13E4B1B6803F4C063B3F5806F1F
:1035C00008D03B4AD2F8803023F48073C2F88030B0
:1035D00000207047364AD2F8803023F48073C2F856
:1035E0008030136823F4C06343F400731360314BDD
:1035F0001B68322202FB03F32F4AA2FB03239B0C1E
:10360000013300E0013B2A4A526912F4806F01D075
:10361000002BF7D1264B5B6913F4806F44D1002057
:103620007047B0F5007F08D0214A136823F4C063C7
:1036300043F480631360002070471D4B1B6803F444
:10364000C063B3F5806F08D0194AD2F8803043F4D4
:103650008073C2F8803000207047154AD2F880305D
:1036600043F48073C2F88030136823F4C06343F4DA
:10367000007313600F4B1B68322202FB03F30E4AE8
:10368000A2FB03239B0C013300E0013B084A526973
:1036900012F4806F01D0002BF7D1054B5B6913F456
:1036A000806F03D1002070470320704703207047CC
:1036B000007000400800002083DE1B43024A93682C
:1036C00043F480439360704700700040124BDA6807
:1036D00002F00302D868C0F30310431C032A11D080
:1036E0000E48B0FBF3F00C4BDB68C3F3062303FB7F
:1036F00000F0094BDB68C3F3416301335B00B0FBAF
:10370000F3F070470548B0FBF3F0034BDB68C3F3FD
:10371000062303FB00F0ECE7001002400024F40055
:10372000002800F0548270B582B00446036813F09C
:10373000010F37D0A44A936803F00C03D26802F05B
:1037400003020C2B23D0082B23D06368B3F5803FF2
:103750004ED0B3F5A02F51D09B4B1A6822F4803283
:103760001A601A6822F480221A606368002B52D013
:10377000FFF778F90546944B1B6813F4003F11D10D
:10378000FFF770F9401B6428F5D9032028E2032ACB
:10379000D9D18D4B1B6813F4003F03D06368002B15
:1037A00000F01782236813F0020F5DD0864A9368F9
:1037B00003F00C03D26802F003020C2B3AD0042B66
:1037C0003AD0E368002B75D07F4A136843F48073C6
:1037D0001360FFF747F905467B4B1B6813F4806FB6
:1037E0005FD1FFF73FF9401B0228F5D90320F7E12D
:1037F000754A136843F480331360B6E703F18043DE
:10380000A3F53C331A6842F480221A601A6842F425
:1038100080321A60A9E7FFF725F905466A4B1B6855
:1038200013F4003FBED0FFF71DF9401B6428F5D903
:103830000320D5E1022AC2D1634B1B6813F4806FC9
:1038400003D0E368002B00F0C6815F4A536823F081
:10385000FE43216943EA016353605C4B1868FFF73C
:10386000BDF8002840F0B981236813F0080F4CD050
:1038700063699BB3544AD2F8943043F00103C2F811
:103880009430FFF7EFF805464F4BD3F8943013F020
:10389000020F3AD1FFF7E6F8401B0228F4D90320C3
:1038A0009EE1494A536823F0FE43216943EA0163DC
:1038B0005360D9E7444A136823F480731360FFF719
:1038C000D1F80546404B1B6813F4806FCCD0FFF74E
:1038D000C9F8401B0228F5D9032081E13A4AD2F801
:1038E000943023F00103C2F89430FFF7BBF805468B
:1038F000354BD3F8943013F0020F06D0FFF7B2F82F
:10390000401B0228F4D903206AE1236813F0040F56
:1039100000F081802C4B9B6D13F0805F36D12A4BD9
:103920009A6D42F080529A659B6D03F0805301932B
:10393000019B0125264B1B6813F4807F28D0A368C8
:10394000012B39D0052B45D01F4BD3F8902022F006
:103950000102C3F89020D3F8902022F00402C3F8AB
:103960009020A368002B43D0FFF77CF80646164B47
:10397000D3F8903013F0020F4CD1FFF773F8801B8F
:1039800041F288339842F2D9032029E10025D1E79A
:103990000F4A136843F480731360FFF763F8064619
:1039A0000B4B1B6813F4807FC9D1FFF75BF8801BBA
:1039B0000228F5D9032013E1034AD2F8903043F0EE
:1039C0000103C2F89030CCE7001002401000002044
:1039D000007000408A4BD3F8902042F00402C3F8F4
:1039E0009020D3F8902042F00102C3F89020B8E76D
:1039F000FFF738F80646824BD3F8903013F0020FE9
:103A000008D0FFF72FF8801B41F288339842F2D993
:103A10000320E5E0E5B9236813F0200F35D0A36952
:103A2000E3B1774AD2F8983043F00103C2F89830F6
:103A3000FFF718F80546724BD3F8983013F0020FD1
:103A400023D1FFF70FF8401B0228F4D90320C7E069
:103A50006B4A936D23F080539365DCE7684AD2F894
:103A6000983023F00103C2F89830FEF7FBFF0546BB
:103A7000634BD3F8983013F0020F06D0FEF7F2FF35
:103A8000401B0228F4D90320AAE0E369002B00F0D0
:103A9000A6805B4A926802F00C020C2A69D0022BC5
:103AA0001DD0574B1A6822F080721A60DA6822F033
:103AB0000302DA60DA6822F0887222F48032DA6077
:103AC000FEF7D0FF04464E4B1B6813F0007F4ED02C
:103AD000FEF7C8FF001B0228F5D9032080E0484A02
:103AE000136823F080731360FEF7BCFF0546444B58
:103AF0001B6813F0007F06D0FEF7B4FF401B0228BE
:103B0000F5D903206CE03E4AD3683E491940236A48
:103B1000606A013843EA0013A06A43EA0023206B7D
:103B20004008013843EA4053606B4008013843EADB
:103B30004063E06A43EAC0630B43D360136843F019
:103B400080731360D36843F08073D360FEF78AFFFD
:103B500004462B4B1B6813F0007F06D1FEF782FF53
:103B6000001B0228F5D903203AE0002038E00020AD
:103B700036E0012B36D0224BDB6803F00301226ACA
:103B8000914231D103F0F002616A0139B2EB011FB9
:103B90002CD103F4FE42A16AB2EB012F28D103F02D
:103BA0007842E16AB2EBC16F24D103F4C001226B09
:103BB0005208013AB1EB425F1ED103F0C063626B61
:103BC0005208013AB3EB426F18D1002008E00120FF
:103BD0007047012004E0012002E0012000E0002005
:103BE00002B070BD0120FBE70120F9E70120F7E7F3
:103BF0000120F5E70120F3E70120F1E70120EFE7DD
:103C0000001002400C809F011E4B9B6803F00C03C8
:103C1000042B33D01B4B9B6803F00C03082B2FD0D5
:103C2000184B9B6803F00C030C2B01D0002070474D
:103C3000144BDA6802F00302D868C0F30310431C87
:103C4000032A11D01048B0FBF3F00E4BDB68C3F32E
:103C5000062303FB00F00B4BDB68C3F34163013326
:103C60005B00B0FBF3F070470748B0FBF3F0054B87
:103C7000DB68C3F3062303FB00F0ECE70248704760
:103C800001487047001002400024F400002800F0B2
:103C9000E680F8B50C460546744B1B6803F00F032D
:103CA0008B420BD2714A136823F00F030B4313604E
:103CB000136803F00F038B4240F0D3802E6816F098
:103CC00001065FD06B68032B2FD0022B4DD0684BC1
:103CD0001B6813F4806F00F0C680FFF795FF654BFB
:103CE00098424DD9624A936823F0F00343F0800371
:103CF000936080265E4A936823F0030369680B4350
:103D00009360FEF7AFFE0746594B9B6803F00C0328
:103D10006A68B3EB820F35D0FEF7A4FEC01B41F2F8
:103D200088339842F0D9032078E0514B1B6813F098
:103D3000007F01D1012071E0FFF7C8FC4D4B984294
:103D40001AD94B4B9B6813F0F00F05D02E6816F074
:103D50000206CFD0AB688BB9454A936823F0F003D5
:103D600043F0800393608026C4E7414B1B6813F443
:103D7000003FB2D1012051E00026BBE70026B9E7A1
:103D80000026B7E72B6813F0020F48D013F0040F9A
:103D900004D0374A936843F4E06393602B6813F0D0
:103DA000080F06D0324A936823F47C5343F4E0634F
:103DB00093602F4A936823F0F003A9680B43936044
:103DC0002A4B1B6803F00F03A34230D82B6813F073
:103DD000040F06D0264A936823F4E063E9680B4396
:103DE00093602B6813F0080F07D0214A936823F4DF
:103DF0006053296943EAC1039360FFF705FF1C4B39
:103E00009B68C3F303131C4AD35C03F01F03D84021
:103E10001A4B18601A4B1868FEF7E0FDF8BD802EAB
:103E2000CED1134A936823F0F0039360C8E70F4A9A
:103E3000136823F00F0323431360FEF713FE0646B7
:103E40000A4B1B6803F00F03A342BFD0FEF70AFE24
:103E5000801B41F288339842F2D90320DEE701202B
:103E600070470120DAE70120D8E700BF00200240B8
:103E70000010024000B4C404E0C3000808000020A1
:103E800010000020014B1868704700BF0800002098
:103E900008B5FFF7F7FF054B9B68C3F30223044AFD
:103EA000D35C03F01F03D84008BD00BF00100240E0
:103EB000F0C3000808B5FFF7E5FF054B9B68C3F3A7
:103EC000C223044AD35C03F01F03D84008BD00BFDF
:103ED00000100240F0C30008F0B583B00446036848
:103EE00013F4002F69D0AE4B9B6D13F0805F1ED191
:103EF000AB4B9A6D42F080529A659B6D03F08053F4
:103F00000193019B0126A74A136843F48073136051
:103F1000FEF7A8FD0546A34B1B6813F4807F08D16C
:103F2000FEF7A0FD401B0228F5D9032502E000267C
:103F3000E9E7002545BB9A4BD3F8903013F4407362
:103F400015D0226C9A4212D0954AD2F8903023F4C0
:103F50004073D2F8901041F48031C2F89010D2F83A
:103F6000901021F48031C2F89010C2F8903013F014
:103F7000010F10D145B98A4AD2F8903023F440732A
:103F8000216C0B43C2F89030C6B1854A936D23F083
:103F90008053936512E0FEF765FD0746804BD3F82A
:103FA000903013F0020FE5D1FEF75CFDC01B41F22B
:103FB00088339842F2D90325DCE70025236813F003
:103FC000010F08D0764AD2F8883023F003036168E5
:103FD0000B43C2F88830236813F0020F08D0704AF0
:103FE000D2F8883023F00C03A1680B43C2F8883064
:103FF000236813F0040F08D0694AD2F8883023F000
:104000003003E1680B43C2F88830236813F0080FCF
:1040100008D0634AD2F8883023F0C00321690B43EB
:10402000C2F88830236813F0200F08D05C4AD2F819
:10403000883023F4406361690B43C2F888302368F9
:1040400013F0400F08D0564AD2F8883023F440537A
:10405000A1690B43C2F88830236813F0800F08D0A1
:104060004F4AD2F8883023F44043E1690B43C2F849
:104070008830236813F4807F08D0494AD2F888300A
:1040800023F44033216A0B43C2F88830236813F4C9
:10409000007F08D0424AD2F8883023F44023616A76
:1040A0000B43C2F88830236813F4806F0CD03C4A6D
:1040B000D2F8883023F44013A16A0B43C2F8883049
:1040C000A36AB3F5801F57D0236813F4006F0CD098
:1040D000334AD2F8883023F44003E16A0B43C2F834
:1040E0008830E36AB3F5800F4BD0236813F4805F08
:1040F0000CD02B4AD2F8883023F04073216B0B434D
:10410000C2F88830236BB3F1807F3FD0236813F46B
:10411000005F0CD0224AD2F8883023F04063616BF4
:104120000B43C2F88830636BB3F1006F33D0236860
:1041300013F4804F0CD01A4AD2F8883023F0406331
:10414000A16B0B43C2F88830A36BB3F1006F2BD087
:10415000236813F4004F0CD0114AD2F8883023F0B2
:104160004053E16B0B43C2F88830E36BB3F1805FDF
:104170001FD0284603B0F0BDD36843F48013D3604A
:10418000A2E7D36843F48013D360AEE7D36843F467
:104190008013D360BAE7D36843F48013D360C6E7D3
:1041A0000010024000700040D36843F48013D360D5
:1041B000CEE7D36843F48033D360DAE730B4036AE0
:1041C00023F001030362036A4568826922F48032A6
:1041D00022F073020C68224323F002038C6823430D
:1041E0001D4CA0420FD004F50064A0420BD004F592
:1041F0004064A04207D004F58064A04203D004F5D7
:104200008064A04205D123F00803CC68234323F047
:104210000403114CA0420FD004F50064A0420BD05F
:1042200004F54064A04207D004F58064A04203D0A6
:1042300004F58064A04207D125F4407C4C6944EA2F
:104240000C0C8D6945EA0C05456082614A68426341
:10425000036230BC704700BF002C014030B4036AD9
:1042600023F480730362036A4468C26922F48032D3
:1042700022F073020D682A4323F400738D6843EA29
:104280000523184DA84203D005F50065A84206D1C4
:1042900023F40063CD6843EA052323F48063114DC2
:1042A000A8420FD005F50065A8420BD005F5406582
:1042B000A84207D005F58065A84203D005F58065C2
:1042C000A84207D124F4405C4C694CEA041C8C6978
:1042D0004CEA04144460C2614A68C263036230BCA1
:1042E000704700BF002C014030B4036A23F48053B0
:1042F0000362036A4468C26922F0807222F4E642D3
:104300000D6842EA052223F400538D6843EA053321
:10431000174DA84203D005F50065A84206D123F445
:104320000043CD6843EA053323F48043104DA8428F
:104330000FD005F50065A8420BD005F54065A842F1
:1043400007D005F58065A84203D005F58065A84231
:1043500007D124F4404C4C694CEA841C8C694CEA2B
:1043600084144460C2614A680264036230BC7047CE
:10437000002C014030B4036A23F480330362036AE3
:104380004468026D22F4803222F070020D682A43E4
:1043900023F400338D6843EA05430F4DA8420FD044
:1043A00005F50065A8420BD005F54065A84207D089
:1043B00005F58065A84203D005F58065A84204D1C3
:1043C00024F480344D6944EA0524446002654A6857
:1043D0008264036230BC7047002C014030B4036A31
:1043E00023F480130362036A4468026D22F0807232
:1043F00022F4E0420D6842EA052223F400138D689E
:1044000043EA05530F4DA8420FD005F50065A842B9
:104410000BD005F54065A84207D005F58065A84298
:1044200003D005F58065A84204D124F480244D69A9
:1044300044EA8524446002654A68C264036230BC71
:10444000704700BF002C014010B4036A046A24F0D6
:1044500001040462846924F0F00C4CEA021223F097
:104460000A030B438261036210BC704710B4046AF4
:1044700024F0100404628469036A24F4704C4CEA4A
:10448000023223F0A00343EA01138261036210BCED
:104490007047836823F4401323F070030B4343F009
:1044A000070383607047000090F83D30DBB2012BBA
:1044B00032D1022380F83D300268D36843F0010313
:1044C000D3600368174A934218D0B3F1804F15D0D8
:1044D000A2F59432934211D002F5806293420DD03E
:1044E00002F59632934209D002F54062934205D01C
:1044F0001A6842F001021A600020704799680A4A5F
:104500000A40062A0AD0B2F5803F09D01A6842F064
:1045100001021A6000207047012070470020704798
:1045200000207047002C01400700010070477047D1
:1045300070477047704710B5044603681A6912F057
:10454000020F12D0DA6812F0020F0ED06FF00202E2
:104550001A610123037703689B6913F0030F00F0CE
:104560009F80FFF7E5FF0023237723681A6912F085
:10457000040F13D0DA6812F0040F0FD06FF00402AA
:104580001A610223237723689B6913F4407F00F0AC
:104590008D802046FFF7CCFF0023237723681A691C
:1045A00012F0080F12D0DA6812F0080F0ED06FF078
:1045B00008021A61042323772368DB6913F0030FD1
:1045C0007BD02046FFF7B4FF0023237723681A69C6
:1045D00012F0100F12D0DA6812F0100F0ED06FF038
:1045E00010021A61082323772368DB6913F4407FE4
:1045F0006AD02046FFF79CFF0023237723681A69BF
:1046000012F0010F03D0DA6812F0010F63D12368B2
:104610001A6912F0800F03D0DA6812F0800F61D1AE
:1046200023681A6912F4807F03D0DA6812F0800FD1
:104630005FD123681A6912F0400F03D0DA6812F0D4
:10464000400F5DD123681A6912F0200F03D0DA6899
:1046500012F0200F5BD123681A6912F4801F03D077
:10466000DA6812F4801F59D123681A6912F4001F06
:1046700003D0DA6812F4001F57D123681A6912F4C4
:10468000800F03D0DA6812F4800F55D123681A69BD
:1046900012F4000F03D0DA6812F4000F53D110BDEA
:1046A000FFF745FF2046FFF744FF5CE72046FFF792
:1046B0003EFF2046FFF73DFF6EE72046FFF737FF3E
:1046C0002046FFF736FF7FE72046FFF730FF204602
:1046D000FFF72FFF90E76FF001021A612046FDF708
:1046E000F5FD94E76FF080021A61204600F0DFFBD1
:1046F00096E76FF480721A61204600F0D9FB98E7C4
:104700006FF040021A612046FFF714FF9AE76FF03E
:1047100020021A61204600F0C9FB9CE76FF480126A
:104720001A61204600F0C5FB9EE76FF400121A6183
:10473000204600F0BFFBA0E76FF480021A6120461C
:1047400000F0B9FBA2E76FF400021A61204600F006
:10475000B3FBA4E703682C4A90420ED0B0F1804F1F
:104760000BD0A2F59432904207D002F580629042BD
:1047700003D002F59632904203D123F070034A68C9
:104780001343214A90421AD0B0F1804F17D0A2F5BE
:104790009432904213D002F5806290420FD002F51D
:1047A000963290420BD002F54062904207D002F55B
:1047B0008062904203D002F58062904203D123F4DC
:1047C0004073CA68134323F080034A6913430360AC
:1047D0008B68C3620B6883620B4B98420FD003F562
:1047E000006398420BD003F54063984207D003F56D
:1047F0008063984203D003F58063984201D10B692E
:104800000363012343617047002C014060B310B57E
:10481000044690F83D3013B3022384F83D3021461E
:1048200051F8040BFFF796FF012384F8483084F811
:104830003E3084F83F3084F8403084F8413084F8CA
:10484000423084F8433084F8443084F8453084F8AA
:10485000463084F8473084F83D30002010BD80F8A1
:104860003C30FDF7FDFED7E70120704760B310B57F
:10487000044690F83D3013B3022384F83D302146BE
:1048800051F8040BFFF766FF012384F8483084F8E1
:104890003E3084F83F3084F8403084F8413084F86A
:1048A000423084F8433084F8443084F8453084F84A
:1048B000463084F8473084F83D30002010BD80F841
:1048C0003C30FFF733FED7E70120704730B4036A6E
:1048D00023F010030362036A4468826922F0807245
:1048E00022F4E6420D6842EA052223F020038D6897
:1048F00043EA0513174DA84203D005F50065A84209
:1049000006D123F08003CD6843EA051323F040036A
:10491000104DA8420FD005F50065A8420BD005F553
:104920004065A84207D005F58065A84203D005F58B
:104930008065A84207D124F4406C4C694CEA840C91
:104940008C694CEA8404446082614A688263036231
:1049500030BC7047002C014038B590F83C30012B3A
:1049600000F0958004460D46012380F83C30142A5F
:1049700000F28880DFE802F00B8686861F86868636
:1049800034868686488686865D86868671000068BF
:10499000FFF714FC2268936943F0080393612268CF
:1049A000936923F0040393612268936929690B4397
:1049B0009361002067E00068FFF788FF2268936931
:1049C00043F4006393612268936923F480639361E5
:1049D00022689369296943EA01239361002052E028
:1049E0000068FFF73BFC2268D36943F00803D361FA
:1049F0002268D36923F00403D3612268D36929694B
:104A00000B43D36100203EE00068FFF76DFC226895
:104A1000D36943F40063D3612268D36923F48063CC
:104A2000D3612268D369296943EA0123D361002055
:104A300029E00068FFF79EFC2268136D43F008032D
:104A400013652268136D23F0040313652268136D48
:104A500029690B431365002015E00068FFF7BEFCD1
:104A60002268136D43F4006313652268136D23F409
:104A7000806313652268136D296943EA0123136576
:104A8000002000E00120002384F83C3038BD0220E3
:104A9000FCE710B4846824F47F4C42EA03220A4302
:104AA00042EA0C02826010BC7047000090F83C3073
:104AB000012B00F08F8010B50446012380F83C30B4
:104AC000022380F83D3002689068434B03409360B6
:104AD0000B68702B55D031D8502B6CD00CD9602B73
:104AE0002AD1CA6849682068FFF7C0FC60212068A5
:104AF000FFF7CFFC002035E0402B0AD1CA68496897
:104B00002068FFF7A1FC40212068FFF7C2FC0020CD
:104B100028E05BD8202B07D003D9302B04D001200C
:104B200020E00BB1102B05D119462068FFF7B1FC2E
:104B3000002017E0012015E0012013E0B3F5005F2D
:104B40002CD00BD9254A9342EED012D9244A934255
:104B5000EAD030329342E7D0012003E0B3F5805F22
:104B600036D10020012384F83D30002384F83C3006
:104B700010BDB3F1101FD7D0103A9342D4D001200A
:104B8000F0E7CB684A6889682068FFF782FF2268EF
:104B9000936843F0770393600020E3E7CB684A68AB
:104BA00089682068FFF775FF2268936843F48043A3
:104BB00093600020D6E7CA6849682068FFF744FC84
:104BC00050212068FFF765FC0020CBE70120C9E7F2
:104BD0000120C7E7022070478800CEFF3000100098
:104BE0004000100001F01F01012303FA01FC036AD9
:104BF00023EA0C030362036A02FA01F10B43036226
:104C00007047000010B504460846002947D194F8C3
:104C10003E30DBB2013B18BF0123002B40F09480F3
:104C2000002867D1022384F83E3001220146206823
:104C3000FFF7D8FF2368474A93420FD002F500627E
:104C400093420BD002F54062934207D002F5806296
:104C5000934203D002F58062934203D15A6C42F42E
:104C600000425A6423683B4A93425FD0B3F1804FBD
:104C70005CD0A2F59432934258D002F58062934200
:104C800054D002F59632934250D002F540629342DE
:104C90004CD01A6842F001021A60002055E0042945
:104CA0000CD0082911D00C2916D010291BD094F84B
:104CB0004330DBB2013B18BF0123AEE794F83F302D
:104CC000DBB2013B18BF0123A7E794F84030DBB209
:104CD000013B18BF0123A0E794F84130DBB2013B50
:104CE00018BF012399E794F84230DBB2013B18BFAB
:104CF000012392E7042809D008280BD00C280DD0F6
:104D000010280FD0022384F843308EE7022384F862
:104D10003F308AE7022384F8403086E7022384F894
:104D2000413082E7022384F842307EE799680A4ADC
:104D30000A40062A0AD0B2F5803F09D01A6842F02C
:104D400001021A60002000E0012010BD0020FCE7F5
:104D50000020FAE7002C01400700010090F83C30E9
:104D6000012B40D030B4012380F83C30022380F87E
:104D70003D300268536894681C4DAA4203D005F583
:104D80000065AA4203D123F470034D682B4323F03E
:104D9000007323F070030D682B4353600368134ABC
:104DA000934212D0B3F1804F0FD0A2F594329342C8
:104DB0000BD002F58062934207D002F596329342FF
:104DC00003D002F54062934204D124F080048A6843
:104DD00014439C60012380F83D30002380F83C3070
:104DE000184630BC70470220704700BF002C0140BD
:104DF00090F83C30012B54D010B4012380F83C30A3
:104E0000CB6823F440738A68134323F480634A68B1
:104E1000134323F400630A68134323F480530A699D
:104E2000134323F400534A69134323F480430A6B6A
:104E3000134323F470238A6943EA024302681A4C3D
:104E4000A24203D004F50064A24203D123F08053B0
:104E5000CC692343144CA2420AD004F50064A24258
:104E600006D05364002380F83C30184610BC7047CD
:104E700023F470038C6A43EA045323F080730C6AB2
:104E8000234323F000734C6A2343074CA24203D010
:104E900004F50064A242E4D123F00053C96A0B4335
:104EA000DFE70220704700BF002C014070477047C9
:104EB00070477047704770477047000070B50446F0
:104EC000016883680269134342691343C26913434B
:104ED00008688B4A024013430B602268536823F42E
:104EE0004053E1680B435360A1692268854B9A42A5
:104EF00001D0236A1943936823F06E4323F430638F
:104F00000B4393602268D36A23F00F03616A0B435B
:104F1000D36223687C4A934223D07C4A934234D0A4
:104F20007B4A93424AD07B4A934259D0754A934276
:104F300068D0102273498B4200F09580E069B0F58B
:104F4000004F00F0D280082A00F24F81DFE812F013
:104F50001201340110014D0137014D014D014D0188
:104F60003A0102F55842D2F8882002F00302032ADF
:104F700009D8DFE802F002045C060122DAE7042225
:104F8000D8E70822D6E71022D4E702F5E632D2F8B5
:104F9000882002F00C020C2A0ED8DFE802F0070D80
:104FA0000D0D090D0D0D4A0D0D0D0B000022C1E771
:104FB0000422BFE70822BDE71022BBE702F5E43276
:104FC000D2F8882002F03002202A34D004D8A2B3CC
:104FD000102A34D10422ADE7302A32D10822A9E7C1
:104FE00002F5E232D2F8882002F0C002802A2AD0EC
:104FF00004D852B3402A2AD104229BE7C02A28D1E0
:10500000082297E702F5C832D2F8882002F44062FD
:10501000B2F5006F1FD005D8FAB1B2F5806F1ED17E
:10502000042287E7B2F5406F1BD1082282E70222F3
:1050300080E702227EE702227CE700227AE7102244
:1050400078E7102276E7022274E7002272E7102246
:1050500070E710226EE702226CE700226AE7102256
:1050600068E7102266E7082A00F2AF80DFE802F066
:1050700008AD3BAD38ADADAD05004FF4004004E0E8
:10508000FEF706FF002800F0A280626A224B33F888
:105090001220B0FBF2F3656805EB4501994200F27E
:1050A0009880B3EB053F00F29680002633463146E8
:1050B000FCF7A8F8090241EA106100026B08C01869
:1050C0002A46334641F10001FCF79CF8A0F54072F6
:1050D000124B9A4200F281802368D860304662E029
:1050E000FEF792FDCEE70E48CFE7082A77D8DFE833
:1050F00002F0193905763C7676761D00084815E0F1
:10510000F369FFCF008000400038014000440040B8
:1051100000480040004C0040F8C30008FFFC0F00AE
:105120000024F400FEF7B4FE00285AD0626A324B25
:1051300033F81230B0FBF3F06268530803EB400021
:10514000B0FBF2F0A0F110024FF6EF739A424AD88A
:1051500083B223F00F03C0F3420018432368D860E2
:10516000002020E0FEF7A6FEDEE7FEF74DFDDBE7C0
:10517000224803E0FEF78CFE002838D0626A1E4BFE
:1051800033F81230B0FBF3F0636800EB5300B0FB70
:10519000F3F0A0F110024FF6EF739A4229D823687A
:1051A00080B2D86000200123A4F86A30A4F86830E7
:1051B00000232367636770BDFEF77CFEDCE7FEF724
:1051C00023FDD9E74FF40040D8E70120EBE70020AA
:1051D000E9E70120E7E70120E5E70120E3E7012017
:1051E000E1E70020DFE70120DDE70120DBE7002029
:1051F000D9E70120D7E700BFF8C300080024F40076
:10520000836A13F0010F06D00268536823F4003359
:10521000C16A0B435360836A13F0020F06D0026821
:10522000536823F48033016B0B435360836A13F09C
:10523000040F06D00268536823F48023416B0B43AC
:105240005360836A13F0080F06D00268536823F492
:105250000043816B0B435360836A13F0100F06D039
:105260000268936823F48053C16B0B439360836A95
:1052700013F0200F06D00268936823F40053016CEA
:105280000B439360836A13F0400F0AD0026853689F
:1052900023F48013416C0B435360436CB3F5801FC0
:1052A0000BD0836A13F0800F06D00268536823F492
:1052B0000023C16C0B43536070470268536823F4AA
:1052C000C003816C0B435360EBE72DE9F8430546BF
:1052D0000F4616469946DDF820802C68E46937EAC7
:1052E00004030CBF4FF0010C4FF0000CB44557D134
:1052F000B8F1FF3FF1D0FDF7B5FBA0EB0900404549
:105300002FD8B8F1000F2CD02B681A6812F0040FB8
:10531000E3D0DA6912F4006FDFD04FF400621A6252
:105320002A6852E8003F23F4D07342E80031002994
:10533000F6D12A6802F1080353E8003F23F0010385
:10534000083242E800310029F3D12023C5F8843027
:10535000C5F88830C5F88C30002385F880300320EC
:105360001FE02A6852E8003F23F4D07342E800317E
:105370000029F6D12A6802F1080353E8003F23F020
:105380000103083242E800310029F3D12023C5F897
:105390008430C5F88830002385F88030032000E091
:1053A0000020BDE8F8832DE9F04182B01E46D0F818
:1053B0008430202B58D104460D469046002957D002
:1053C000002A57D090F88030012B55D0012380F867
:1053D00080300023C0F88C302123C0F88430FDF7E2
:1053E00041FB0746A4F85480A4F85680A368B3F59F
:1053F000805F05D04FF00008002384F8803014E06F
:10540000236913B14FF00008F6E7A8460025F3E73B
:1054100038F8023B2268C3F308039362B4F85620BD
:1054200092B2013A92B2A4F85620B4F856309BB228
:1054300073B100963B46002280212046FFF745FFCE
:10544000E0B9002DE4D015F8012B23689A62E5E756
:1054500000963B46002240212046FFF736FF78B9F0
:105460002023C4F8843000E0022002B0BDE8F081BF
:105470000120FAE70120F8E70220F6E70320F4E72D
:105480000320F2E72DE9F04383B01E46D0F88830C0
:10549000202B40F0818004460D46904600297FD0A5
:1054A000002A7FD090F88030012B7DD0012380F836
:1054B00080300023C0F88C302222C0F88820C366D8
:1054C000FDF7D0FA0746A4F85C80A4F85E80A368D4
:1054D000B3F5805F06D0A3B9226972B9FF22A4F8A0
:1054E000602014E0226922B940F2FF12A4F8602083
:1054F0000DE0FF22A4F8602009E07F22A4F86020DC
:1055000005E0B3F1805F0DD00022A4F86020B4F86C
:105510006080B3F5805F0FD04FF00009002384F85E
:1055200080301EE022691AB97F22A4F86020EEE7DD
:105530003F22A4F86020EAE7236913B14FF0000985
:10554000ECE7A9460025E9E723685B6A08EA03035C
:1055500029F8023BB4F85E2092B2013A92B2A4F864
:105560005E20B4F85E309BB28BB100963B460022C1
:1055700020212046FFF7A9FEC0B9002DE4D0236802
:105580005A6A5FFA88F3134005F8013BE2E72023EB
:10559000C4F88830002000E0022003B0BDE8F083AA
:1055A0000120FAE70120F8E70220F6E70320F4E7FC
:1055B00030B583B004460023C0F88C30FDF752FAB2
:1055C00005462268126812F0080F0FD123681B6885
:1055D00013F0040F18D12023C4F88430C4F88830A5
:1055E0000020E06684F8800003B030BD6FF07E4399
:1055F0000093034600224FF400112046FFF765FE9A
:105600000028E3D00320EFE76FF07E4300932B46A2
:1056100000224FF480012046FFF757FE0028DAD021
:105620000320E1E778B310B50446D0F884300BB31B
:105630002423C4F884302268136823F00103136024
:105640002046FFF73BFC012813D0A36ABBB92268B0
:10565000536823F4904353602268936823F02A032D
:1056600093602268136843F0010313602046FFF73C
:105670009FFF10BD80F88030FDF72CF9D8E7204659
:10568000FFF7BEFDE3E7012070470000436E2BB932
:105690000123A0F86A30A0F86830704730B403687E
:1056A0009A68C2F342629968490F094D6B5CDB004E
:1056B000084C615C93FBF1F3A0F86A30AB5CDB0053
:1056C000A25C93FBF2F3A0F8683030BC704700BFD7
:1056D00018C4000810C4000890F88030012B18D0BE
:1056E000012380F880302423C0F8843003681A68CE
:1056F000196821F00101196022F00052002343666D
:1057000001680A602022C0F8842080F880301846A2
:1057100070470220704738B590F88030012B1DD0BB
:105720000446012380F880302423C0F884300368C5
:105730001D681A6822F001021A600268936823F05B
:10574000604319439160FFF7A1FF23681D60202388
:10575000C4F88430002084F8800038BD0220FCE7C3
:1057600038B590F88030012B1DD00446012380F815
:1057700080302423C0F8843003681D681A6822F042
:1057800001021A600268936823F060631943916014
:10579000FFF77CFF23681D602023C4F884300020BD
:1057A00084F8800038BD0220FCE70000014B186837
:1057B000704700BF1400002070B50D4E0D4D761BD4
:1057C000B61006D0002455F8043B01349847A64291
:1057D000F9D1094E094D761B06F048FCB61006D0EB
:1057E000002455F8043B01349847A642F9D170BD16
:1057F000A8C80008A8C80008B0C80008A8C80008C1
:10580000830730B548D0541E002A3FD0CAB20346A1
:1058100001E0013C3AD303F8012B9D07F9D1032C99
:105820002DD9CDB245EA05250F2C45EA054536D9D7
:10583000A4F1100222F00F0C03F1200EE6444FEA0F
:10584000121C03F1100242E9045542E902551032DC
:105850007245F8D10CF1010214F00C0F03EB0212A7
:1058600004F00F0C13D0ACF1040323F00303043352
:10587000134442F8045B9342FBD10CF003042CB1B7
:10588000CAB21C4403F8012B9C42FBD130BD6446D4
:105890001346002CF4D1F9E703461446BFE71A4635
:1058A000A446E0E70FB400B5074983B004AB08682D
:1058B00053F8042B8168019300F0E0F803B05DF821
:1058C00004EB04B0704700BF140000202DE9F04342
:1058D000694CD4F8008083B004460E4617461D4636
:1058E000B8F1000F03D0D8F83830002B77D0022F52
:1058F00005D0012F00F2AC80002DC0F2A980636EAC
:10590000DA0752D52146404602F060FF216B41B1D3
:1059100004F14003994202D0404603F083F800238B
:105920002363B4F90CC000231CF0800FA3616360F3
:1059300064D12CF44A6C2CF0030C022FA4F80CC098
:105940006AD001AB6A462146404603F011FAA389AA
:105950001843A081002D2FD0002E2ED0D8F838303B
:10596000002B38D0009B2660AB42B4F90C301CBF32
:1059700043F40063A381012F04BF43F00103A3811B
:105980009AB213F00803C4E904652CD0D1075DD5A1
:105990006D42A561656E002315F00105A36027D057
:1059A0000025284603B0BDE8F083A3899B05A9D450
:1059B000A06D03F069F9A5E7009D284603F008FAF9
:1059C0000646002847D0A38943F08003A381D8F876
:1059D0003830002BC6D1404602F02CFFC2E74046CB
:1059E00002F028FF83E7A360656E15F00105D7D1AB
:1059F000930524D5284603B0BDE8F08321694046CD
:105A000003F010F8B4F90CC02CF44A6C2CF0030C21
:105A1000022FA4F80CC094D10025002204F1430306
:105A2000A2600122C4E904322360636E4CF0020CD0
:105A3000D807A4F80CC0DDD41CF4007FDAD1A06D27
:105A400003F024F9284603B0BDE8F083A560CBE756
:105A50004FF0FF35CEE7DDF80090A94504D0484669
:105A600003F0B6F9064620B9B4F90CC04FF0FF3583
:105A7000D3E74D46A7E700BF140000202DE9F04F03
:105A8000D5B01C46079191460546099003F0F4F8FD
:105A90000268179210460E94FBF732FE16901DB165
:105AA000AB6B002B00F02A82079A536EDD0740F1A2
:105AB0003881B2F90C2091B28F0409D4079B42F4CB
:105AC00000529A8191B21A465B6E23F400535366DA
:105AD0000E0740F1CB80079B1B69002B00F0C680AE
:105AE00001F01A030A2B00F0CF8000242BAB4D46A7
:105AF000CDE92944CDE91944CDE91B4412942893FA
